:020000040800F2
:10000000F0FF0120D9020008F50B0008F90B0008E9
:10001000FD0B0008010C0008050C000800000000A2
:10002000000000000000000000000000090C0008B3
:100030000D0C000800000000110C0008150C000851
:1000400029030008290300082903000829030008E0
:1000500029030008290300082903000829030008D0
:1000600029030008290300082903000829030008C0
:1000700029030008290300082903000829030008B0
:1000800029030008290300082903000829030008A0
:100090002903000829030008290300082903000890
:1000A0002903000829030008290300082903000880
:1000B0002903000829030008290300082903000870
:1000C0002903000829030008290300082903000860
:1000D0002903000829030008290300082903000850
:1000E0002903000829030008000000002903000874
:1000F0002903000829030008290300082903000830
:10010000290300082903000829030008290300081F
:10011000290300082903000829030008290300080F
:1001200029030008290300082903000829030008FF
:1001300029030008290300082903000829030008EF
:1001400000000000000000000000000000000000AF
:1001500029030008290300082903000829030008CF
:1001600029030008290300082903000829030008BF
:1001700029030008290300082903000829030008AF
:10018000290300082903000829030008290300089F
:10019000290300082903000829030008290300088F
:1001A000290300082903000829030008290300087F
:1001B000290300082903000829030008290300086F
:1001C000290300082903000829030008290300085F
:1001D000290300082903000829030008290300084F
:1001E000290300082903000829030008290300083F
:1001F000290300082903000829030008290300082F
:10020000290300082903000829030008290300081E
:10021000290300082903000829030008290300080E
:100220002903000829030008290300080000000032
:100230002903000829030008000000002903000822
:1002400029030008290300082903000829030008DE
:1002500029030008290300082903000829030008CE
:1002600029030008290300082903000829030008BE
:1002700029030008290300082903000800000000E2
:1002800029030008290300082903000800000000D2
:08029000000000002903000832
:1002980010B5054C237833B9044B13B10448AFF3B8
:1002A80000800123237010BD3C04002000000000E2
:1002B8007825000808B5034B1BB103490348AFF381
:1002C800008008BD000000004004002078250008D8
:1002D800DFF834D0002103E00C4B5B584350043165
:1002E8000B480C4B42189A42F6D30B4A02E0002303
:1002F80042F8043B094B9A42F9D300F089FC02F01A
:10030800A3F800F00FF87047F0FF0120B0250008AF
:10031800000000203C0400203C040020E0040020F1
:10032800FEE70000784A536913F4003300B59DB026
:1003380011D1BFF34F8FBFF36F8FC2F85032BFF3A5
:100348004F8FBFF36F8F536943F400335361BFF38B
:100358004F8FBFF36F8F6C48436913F4803326D1F6
:10036800C0F88430BFF34F8FD0F8803043F6E07484
:10037800C3F34E3CC3F3C90E4FEA4C1C0CEA04010C
:10038800734641EA8372013B5D1CC0F86022F8D1D4
:10039800ACF1200C1CF1200FF0D1BFF34F8F436953
:1003A80043F480334361BFF34F8FBFF36F8F00F087
:1003B80099FC022002F024F8544B0021544A009181
:1003C800D96A21F00101D962DB6A03F001030093C5
:1003D800936943F440439361936903F44043009362
:1003E800009B93699904FCD501204FF480310023C8
:1003F8000222099005200A91A021042408250C93C3
:1004080010931B9316921A931995CDE9140109A814
:10041800CDE91222CDE9174200F056FD00B1FEE702
:1004280040233F220390214601920322089301A80A
:1004380004950292CDE905334FF48063079301F0E8
:100448004FF8054600B1FEE700F06AF80346284673
:100458001D4600F0CDFA054300D0FEE701F0DCF9B7
:1004680040F201724FF0504309A8ADF824200A93D6
:10047800284A294BCDE90B2301F0ECF9204601F07D
:10048800D9F9BFF34F8FBFF36F8F1F494B6923F41F
:1004980000334B61C1F85052BFF34F8FBFF36F8FDA
:1004A800C1F88450BFF34F8F4B6923F480334B61FD
:1004B800BFF34F8FD1F8805043F6E07CC5F34E343C
:1004C800C5F3C905640104EA0C002B4640EA8372AF
:1004D800013BC1F874225A1CF8D1203C14F1200FBA
:1004E800F1D1BFF34F8FBFF36F8F4FF010424FF032
:1004F800E023002009491861536812680B6082F3F1
:1005080008889847FEE700BF00ED00E000040058A7
:100518000048025816000103010001015804002098
:100528002DE9F04300238FB0384C022607224FF004
:1005380004080127009308934FF400600B93344993
:10054800A6610191CDF81080C4E90062C4E9028275
:10055800CDE9027310224023CDE905234FF4C0737F
:1005680007934FF48053C4E90466CDE9090300F00A
:1005780057F921460DEB080001F0E6FA28B1254BA2
:1005880038461F700FB0BDE8F083234C4FF00809C0
:1005980005464FF6FF7221462760C4F80490C4E967
:1005A800027001A801F0FAFA384600F0DDFB214696
:1005B8004FF6FF7201A8C4E90069C4E9027501F0A9
:1005C800EDFA032321464FF6FF7201A82360E56088
:1005D800C4E9019901F0E2FA4FF40C734FF6FF7287
:1005E8002146009301A8009BA760E360C4E9008945
:1005F80001F0D4FA40F2036101A801F0EFFA054BCB
:1006080028461D700FB0BDE8F08300BF6C040020C1
:1006180040410052880400205C0400207B4BD3F842
:10062800D42042F480422DE9F047C3F8D42090B09A
:10063800D3F8D4200924764D002602F48042754F61
:100648000BA9284600924FF04008009A4FF00A097B
:10065800DA6FDFF8C8A142F48042DA67DA6F22F471
:100668008042DA67D3F8E02042F02002C3F8E020A5
:10067800D3F8E02002F020020192019AD3F8E0209A
:1006880042F00802C3F8E020D3F8E02002F00802A4
:100698000292029AD3F8E02042F02002C3F8E02048
:1006A800D3F8E02002F020020392039AD3F8E02066
:1006B80042F02002C3F8E020D3F8E02002F0200244
:1006C8000492049AD3F8E02042F02002C3F8E02014
:1006D800D3F8E02002F020020592059AD3F8E02032
:1006E80042F04002C3F8E020D3F8E02002F04002D4
:1006F8000692069AD3F8E02042F08002C3F8E02080
:10070800D3F8E02002F080020792079AD3F8E0209D
:1007180042F08002C3F8E020D3F8E02002F0800223
:100728000892089AD3F8E02042F04002C3F8E0208B
:10073800D3F8E02002F040020992099AD3F8E020A9
:1007480042F04002C3F8E020D3F8E0300F9403F001
:1007580040030D960A934FF480630A9A0B93022381
:100768000C9303230E9301F0A7F801230BA9384635
:10077800CDF83C900D93CDF82C8001F09DF84FF406
:1007880000630BA924480B930D960F9401F094F87D
:1007980004230BA950460F940B9301F08DF8CDF864
:1007A8003C904FF400790BA92846CDF82C9001F025
:1007B80083F8082350460BA90F940B9301F07CF89B
:1007C80080230BA928460F940B9301F075F80BA909
:1007D8003846CDF82C9001F06FF828460BA9CDF8D3
:1007E8002C8001F069F84FF480430BA938460B932D
:1007F80001F062F832460F215C2000F0ABFF5C206C
:1008080000F0E6FF10B0BDE8F08700BF00440258D2
:100818000014025800180258000C0258001C025814
:100828003B4B02200121D3F8D42042F4805200B57A
:10083800C3F8D4208DB0D3F8D42002F480520192AA
:10084800019AD3F8E02042F00802C3F8E020D3F878
:10085800E02002F008020292029AD3F8E02042F067
:100868001002C3F8E020D3F8E02002F0100203924F
:10087800039AD3F8E02042F02002C3F8E020D3F82E
:10088800E02002F020020492049AD3F8E02042F01B
:100898004002C3F8E020D3F8E02002F040020592BD
:1008A800059AD3F8E02042F08002C3F8E0200C2239
:1008B800D3F8E0300890032003F08003099107A9DA
:1008C8000693069B4CF203730A9012480B92079307
:1008D80000F0F2FF4FF6837307A90F48079300F063
:1008E800EBFF4FF63F0307A90C48079300F0E4FF1E
:1008F80048F2331307A90A48079300F0DDFFE02305
:1009080007A90848079300F0D7FF0DB05DF804FB6E
:1009180000440258000C02580010025800140258F3
:1009280000180258001C025810B5002394B04FF468
:10093800407105224FF04074022006924FF4800265
:100948000B9013930093049305926A4603900B4807
:10095800CDE90C131021CDE90E3440F201140291B7
:1009680006A90194CDE9113341F2883301F0D0FB97
:10097800003818BF012014B010BD00BF8C0400203F
:1009880030B5002395B04FF44070062141F288320B
:100998000B93069106A91393CDE90C031348CDE9EF
:1009A8000E33CDE9113301F05DFA10B1012015B015
:1009B80030BD02251024049040F202234FF4800039
:1009C800052206A9CDE902454FF04074CDE905029C
:1009D800CDE900336A4641F2883304480F9401F0A8
:1009E80097FB003818BF012015B030BD8C040020DB
:1009F800F0B57C4C9DB07C4B2046236001F020FA7A
:100A080018B1012420461DB0F0BDFFF707FE0320F2
:100A1800012110224FF00063E260C4E9010193FA5A
:100A2800A3F3002B00F0DC80B3FA83F3013B002230
:100A38004FF4407540216B48C4E90435C4E90622E7
:100A4800216201F09FF90028DBD14FF480766624FB
:100A5800089041F288320990694605900D900094FB
:100A6800CDE90660CDE90B005E4801F0FBF90028EE
:100A7800C7D1992741F2883269465A48009701F050
:100A8800F1F90028BDD141F28832694655480695EA
:100A9800009401F0E7F90028B3D141F288326946A1
:100AA8005048009701F0DEF90028AAD135231390A9
:100AB8001B9041F288320EA90E93CDE91460CDE95E
:100AC8001600CDE91900474801F0CCF9002898D163
:100AD800FFF72AFF002894D1B723169017900E939A
:100AE80013901B90CDE91450CDE91900FFF748FF8A
:100AF800002886D141F288320EA93A4801F0B2F9AD
:100B080000287FF47EAFFFF70FFF00287FF479AF4E
:100B1800002385224FF440764FF04075ADF8003041
:100B28000EA913931B930E9241F288322D48149606
:100B38001795CDE91533CDE919330223189301F040
:100B480091F900287FF45DAF41F288326946254863
:100B580001F062FA00287FF454AFFFF711FF044652
:100B680000287FF44EAFBDF8003040F60F720EA992
:100B78001C481A4048F28003134341F28832ADF80A
:100B8800003081230E9301F06DF900287FF439AF0E
:100B980041F288326946134801F0C6F900287FF40B
:100BA80030AFED2005236A460EA90E904FF4406041
:100BB80013934FF0004315904FF4405019934FF0A2
:100BC80080431190074816941B94149617951A930E
:100BD800CDE9004401F00AFB002818BF012411E701
:100BE8001F2324E78C04002000500052704700BFE8
:100BF800FEE700BFFEE700BFFEE700BFFEE700BF5D
:100C0800704700BF704700BF704700BF00F09AB838
:100C180010B41A4C00221A4BD4F88810194841F421
:100C28007001C4F888101968174C41F00101196067
:100C38001A6119680840154918609A61DA611A62E0
:100C48009A62DA621A635A639A63DA631A645A64B4
:100C5800186820F4802018601A6623681940B1F1DA
:100C6800005F03D20A4B0122C3F80821034B4FF05F
:100C780000625DF8044B9A60704700BF00ED00E029
:100C8800004402587FEDF6EA0010005C0000FFFF08
:100C980000800051704700BF0F4B1B780BB9012033
:100CA800704710B504464FF47A700C4AB0FBF3F362
:100CB8001068B0FBF3F000F099FD0F2C00D808B1D4
:100CC800012010BD002221464FF0FF3000F042FD08
:100CD800034B00201C6010BD08000020000000200D
:100CE8000C00002010B50320124C00F021FD00F08C
:100CF800D5FB114B11499A699B69C2F3032203F092
:100D08000F038A5CCB5C02F01F020D4903F01F033E
:100D1800D04020FA03F308600F202360FFF7BCFFE0
:100D280010B10124204610BD0446FFF7B3FF20464A
:100D380010BD00BF040000200044025890250008A0
:100D480000000020034A044B11681B780B44136011
:100D5800704700BFD804002008000020014B186825
:100D6800704700BFD804002038B50446FFF7F6FFE7
:100D78000546631C02D0044B1B781C44FFF7EEFFAA
:100D8800431BA342FAD338BD08000020014B186862
:100D9800000C70470010005C454B30B49A6A9C6A9E
:100DA800DD6A14F47C7F596BC4F3051038D0C1F3A5
:100DB800CC0105F0010502F0030205FB01F1012A4F
:100DC80007EE901AB8EEE77A02D0022A4ED04AB35C
:100DD80007EE900ADFED376AF8EEE77A1B6B86EECE
:100DE800A76A9FED355AC3F3080306EE903AF7EE6B
:100DF800005AF8EEE66AE7EE056A76EEA56A66EE50
:100E0800266A2B4B1B6BC3F34623013307EE903A3C
:100E1800B8EEE77AC6EE877AFCEEE77A17EE900A24
:100E280030BC70471A68920627D5196807EE900AF1
:100E3800224AF7EE005A1B6BC1F3C101F8EEE77ABC
:100E48009FED1D5AC3F30803CA4006EE903A06EE1A
:100E5800102AF8EEE66AB8EEC66AE7EE056A86EE8C
:100E6800277A76EEA56A66EE876ACAE707EE900AE1
:100E7800DFED136AF8EEE77AB0E707EE900A9FED28
:100E8800115A1B6BB7EE006AF8EEE77ADFED0A5AE3
:100E9800C3F30803C5EE276A07EE903AF8EEE77A3F
:100EA800E7EE257A77EE867A66EEA76AA9E700BFAD
:100EB800004402580024744A000000390090D0030E
:100EC80020BCBE4B0024744C002800F0EB81F8B520
:100ED80003680446D90730D5A0490A69896A02F02F
:100EE8003802102A00F02781182A00F01F81636851
:100EF800B3F5803F00F06181002B00F07981B3F5F4
:100F0800A02F964B1A6800F06C8222F480321A6087
:100F18001A6822F480221A60FFF720FF8F4E41F2F0
:100F28008837054605E0FFF719FF401BB84200F275
:100F38005D8133689B03F6D52368990721D5874AD5
:100F48001369926A13F0380340F0A480834B1B683E
:100F58005B0703D5E368002B00F0E680FFF716FF78
:100F680041F20303984200F27E812269402A00F090
:100F780040827A494B6823F47C3343EA02334B605E
:100F88002368D90653D41D0716D56369734D002B02
:100F980000F0AE806B6F43F001036B67FFF7DEFE76
:100FA800064605E0FFF7DAFE801B022800F21E81E4
:100FB8006B6F9807F6D523689A0616D5A369674D0F
:100FC800002B00F02D812B6843F480532B60FFF732
:100FD800C5FE064605E0FFF7C1FE801B022800F2A9
:100FE80005812B689F04F6D52368590700F1AD8069
:100FF800606AD0B1594D2B6903F03803182B00F003
:10100800C2812B68022823F080732B6000F0568180
:10101800FFF7A4FE044605E0FFF7A0FE001B022828
:1010280000F2E4802B689B01F6D40020F8BD4B4AFF
:101038001369926A03F03803082B6ED0182B68D016
:10104800E369464D002B00F0FC802B6843F08003D9
:101058002B60FFF783FE064605E0FFF77FFE801B47
:10106800022800F2C3802B68DB05F6D5FFF78EFE59
:1010780041F20303984200F2E581226A6B68202A54
:1010880023F0F8430CBF43F0804343EA82636B606C
:10109800236878E7182B00F00181304DE2682B684F
:1010A800002A00F0EA8023F0190313432B60FFF7AE
:1010B80055FE064605E0FFF751FE801B022800F2A8
:1010C80095802B685F07F6D5FFF760FE41F20303B2
:1010D800984200F2C08122696B68402A23F47C336D
:1010E8000CBF43F4003343EA02336B60236848E7DC
:1010F8006B6F23F001036B67FFF730FE064604E0D1
:10110800FFF72CFE801B022870D86B6F9907F7D465
:1011180051E702F00302012A92D1104B1B68DA054D
:1011280051D5E369802B4ED00120F8BD01F00301B1
:1011380002297FF4DCAE094A126892037FF5FDAEFE
:101148006268002A7FF4F9AEEEE7054D2B6843F498
:1011580080732B60FFF702FE064608E00044025841
:1011680000480258FFF7FAFD801B64283ED82B6818
:10117800DA05F7D5A368012B00F07681002B00F083
:101188004181052BA74B1A6F00F07D8122F00102E7
:101198001A671A6F22F004021A67FFF7DFFDA14EE3
:1011A80041F28837054604E0FFF7D8FD401BB842F6
:1011B8001CD8336F9B07F7D51AE79A4A136843F48C
:1011C80080331360A8E6FFF7E1FD41F2030398427C
:1011D8006AD8226A202A00F04D8192494B6823F090
:1011E800F84343EA82634B602368CCE60320F8BDEA
:1011F8008C4D41F288372B6823F480332B602B68A1
:1012080023F480232B60FFF7A9FD064604E0FFF7CF
:10121800A5FD801BB842E9D82B689803F7D48BE664
:101228002B6823F480532B60FFF798FD064604E0F3
:10123800FFF794FD801B0228D8D82B689804F7D4B0
:10124800D2E62B6823F080032B60FFF787FD064664
:1012580004E0FFF783FD801B0228C7D82B68DF0551
:10126800F7D423688FE66F4A2169536823F0FE4359
:1012780043EA01635360236883E623F001032B608C
:10128800FFF76CFD064604E0FFF768FD801B0228A7
:10129800ACD82B685807F7D4236872E692077FF416
:1012A800FCAE53E6012070475E4A216AD36823F0FA
:1012B8007C5343EA0163D360236864E6FFF74EFD7D
:1012C800064604E0FFF74AFD801B02288ED82B68EB
:1012D8009901F7D4A96A544BA26A0B405349514E5D
:1012E8001343E26A43EA0213AB62D4E90D32013BCD
:1012F800013A5B0212049BB202F4FE021343226B12
:10130800013AC2F308021343E26B013A120602F0F3
:10131800FE4213432B63EB6A23F00103EB626A6B13
:10132800A36C114041EAC3016963EB6A226C23F0A4
:101338000C031343EB62EB6A626C23F00203134362
:10134800EB62EB6A43F48033EB62EB6A43F40033FD
:10135800EB62EB6A43F48023EB62EB6A43F0010330
:10136800EB622B6843F080732B60FFF7F7FC0446B1
:1013780005E0FFF7F3FC001B02283FF637AF3368A0
:101388009A01F6D551E60128AA6A2D6B3FF44EAEB4
:1013980002F00303A16A8B427FF4C6AEC2F30512C2
:1013A800E36A9A427FF4C0AE236BC5F30802013B9F
:1013B8009A427FF4B9AE636BC5F34622013B9A4269
:1013C8007FF4B2AEA36BC5F30642013B9A427FF4A9
:1013D800ABAEE06BC5F306650138281A18BF0120CB
:1013E800F8BD42F480221A601A6842F480321A600A
:1013F80092E50C4A536823F47C3343F4003353607A
:101408002368BEE5074D41F288372B6F23F00103AF
:101418002B672B6F23F004032B67FFF79FFC06460F
:101428000CE000BF004402580CFCFFFF0700FFFF60
:10143800FFF794FC801BB8423FF6D8AE2B6F980795
:10144800F6D4D5E5EB68226A23F07C5343EA0263BD
:10145800EB60236897E56B68226923F0FE4343EA53
:1014680002636B6023688CE50B4A136F43F001033A
:10147800136792E6084A536823F0F84343F0804321
:10148800536023687FE542F004021A671A6F42F03E
:1014980001021A6781E600BF004402580C4A13692A
:1014A80003F03803102B04D0182B0DD01BB10948BA
:1014B80070470948704713689B0607D513680748A3
:1014C800C3F3C103D8407047FFF766BC03487047B1
:1014D8000044025800093D0040787D010090D00387
:1014E800002800F00C818C4A136803F00F038B422C
:1014F8002DE9F04104460D460CD2136823F00F0382
:101508000B431360136803F00F038B4202D00120D2
:10151800BDE8F08123685F070BD5804920698A6997
:1015280002F07002904204D98A6922F070020243E4
:101538008A611E070BD579496069CA6902F0700291
:10154800904204D9CA6922F070020243CA61D806DF
:101558000BD57249A069CA6902F4E062904204D9C5
:10156800CA6922F4E0620243CA6199060BD56B4945
:10157800E0690A6A02F07002904204D90A6A22F00D
:10158800700202430A629A0740F1AB806348E1683F
:10159800826902F00F02914204D9826922F00F0297
:1015A8000A438261D80730D55C4AA168936923F45D
:1015B80070630B43936161681368022900F0A1808E
:1015C800032900F09880012900F0A18058079ED5D2
:1015D800524E41F28838336923F007030B433361D5
:1015E800FFF7BCFB074605E0FFF7B8FBC01B40450B
:1015F80000F28B803369626803F03803B3EBC20FE3
:10160800F2D12368990706D5E1684448826902F057
:101618000F028A4269D840490A6802F00F02AA42BA
:101628000AD90A6822F00F022A430A600A6802F0FF
:101638000F02AA427FF46BAF5A070BD537492069CE
:101648008A6902F07002904204D28A6922F070021C
:1016580002438A611F070BD530496069CA6902F0E5
:101668007002904204D2CA6922F070020243CA6131
:10167800DE060BD52949A069CA6902F4E0629042E6
:1016880004D2CA6922F4E0620243CA619D060BD5FE
:10169800224AE169136A03F07003994204D2136A7B
:1016A80023F070030B431362FFF7F8FE1B4A03464F
:1016B8001B4891699269C1F303211A4D02F00F0288
:1016C800194C415C825C01F01F01184802F01F02AE
:1016D800CB4000682B60D3402360BDE8F041FFF7A2
:1016E800DBBADA073FF560AF95E7826922F00F02AF
:1016F800114381618FE79F013FF56AAF07E701203A
:1017080070479B033FF564AF01E7032000E7DE0560
:101718003FF55EAFFBE600BF0020005200440258D0
:101728009025000800000020040000200C00002084
:1017380006494FF6FF0C0002054BCA6800F4E0604A
:1017480002EA0C0210430343CB60704700ED00E04F
:101758000000FA051B4BDB68C3F3022300B5C3F195
:10176800070E03F1040CBEF1040F28BF4FF0040E5E
:10177800BCF1060F1AD9033B4FF0FF3C0CFA03FCEF
:1017880022EA0C024FF0FF3C00280CFA0EFC21EA7A
:101798000C0101FA03F141EA02010ADB09010A4BD3
:1017A800C9B2034483F800135DF804FB0022134612
:1017B800E8E700F00F000901044BC9B203441976A9
:1017C8005DF804FB00ED00E000E100E0FCEC00E067
:1017D800002807DB012300F01F01034A40098B4062
:1017E80042F82030704700BF00E100E0431EB3F12B
:1017F800807F0CD24FF0E022002006494FF0F00C19
:101808005361072381F823C0906113617047012059
:10181800704700BF00ED00E0BFF35F8F044B00216D
:101828005A6A22F480325A62C3F89410704700BF93
:1018380000ED00E0064B40F00100C3F894005A6A3E
:1018480042F480325A62BFF34F8FBFF36F8F7047F5
:1018580000ED00E0174A4378C2F89830017821B3C8
:10186800436800B5C2F89C30C37A90F80CC01B06D8
:1018780090F80FE043EA0C7390F80AC00B43817BA1
:1018880043EACC4390F80DC043EA8C4390F809C072
:1018980043EA4143017A43EA0E4343EA0C2343EA0D
:1018A8004103C2F8A0305DF804FBC2F89C10C2F8EE
:1018B800A010704700ED00E02DE9F04F0D6883B0EF
:1018C800002D00F0EB804FF0000CDFF868826346D3
:1018D80025E003F007024FEAD30E4FF00F0A04F099
:1018E80003044FEA820900EB8E0E04FA0CF40AFA9C
:1018F80009FADEF8202022EA0A0A0A6902FA09F23D
:1019080042EA0A02CEF82020026816402643066002
:1019180001330CF1020C35FA03F200F0BF8001220A
:101928009A4012EA050EF3D04C6824F0100909F128
:10193800FF36012E4FF0030606FA0CF600F2B180CE
:10194800D0F808A0CF682AEA060AF64307FA0CFB83
:101958004BEA0A0AC0F808A0C4F3001AD0F804B089
:101968000AFA03FA2BEA02024AEA02024260C26851
:10197800B9F1020F02EA060A8A6802FA0CF242EA90
:101988000A02C260A5D00268E70002EA060204F073
:10199800030606FA0CF646EA02060660B8D55E4E5D
:1019A80003F003095D4FD6F8F4204FEA8909B842DD
:1019B80042F00202C6F8F420D6F8F42023F0030619
:1019C80002F0020246440192019A4FF00F02D6F843
:1019D80008A002FA09F22AEA020226D007F580676F
:1019E800B84267D04E4FB8426BD04E4FB8425AD02B
:1019F8004D4FB84273D04D4FB84277D04C4FB84294
:101A080066D0DFF834A1504577D0DFF830A15045D3
:101A18007AD0DFF82CA150450CBF4FF0090A4FF0DF
:101A28000A0A0AFA09F942EA0902B2604FF0B0421A
:101A3800E6036FEA0E09D2F880204FF0B04603F1B2
:101A480001030CF1020C54BF09EA02024EEA020239
:101A5800C6F88020A203D6F884604FF0B04254BF85
:101A680009EA06064EEA0606E702C2F88460166826
:101A78004FF0B04254BF09EA06064EEA0606A40231
:101A88004FF0B0441660526854BF09EA02024EEAA9
:101A98000202626035FA03F27FF441AF03B0BDE899
:101AA800F08FF64363E74FF0030A0AFA09F942EAAE
:101AB8000902BAE74FF0010A0AFA09F942EA0902EB
:101AC800B3E74FF0020A0AFA09F942EA0902ACE759
:101AD8004FF0060A0AFA09F942EA0902A5E74FF0A7
:101AE800040A0AFA09F942EA09029EE74FF0050AD0
:101AF8000AFA09F942EA090297E74FF0070A0AFACF
:101B080009F942EA090290E74FF0080A0AFA09F9C6
:101B180042EA090289E700BF00440258000002585F
:101B280000080258000C025800100258001402580D
:101B38000018025800040058001C025800200258DF
:101B480000240258704700BF18B338B590F82C30FD
:101B580004460D4603F0FF02B3B12146022384F880
:101B68002C3051F8040B00F09BFB62682946206872
:101B780000F0D4FB084A01210020136843F0004319
:101B8800136084F82C1038BD80F82D20FFF7DAFF99
:101B9800E3E70120704700BF0040005270B590F89D
:101BA8002C300446022BD8B204D000F0FB06012EDC
:101BB80001D0012070BD02230D46206884F82C3026
:101BC80000F0F8FB2B68022B03D0002084F82C606F
:101BD80070BD0523002084F82C3070BD38B590F80E
:101BE8002C300446022BD8B205D094F82C30012BA7
:101BF800DDB201D0012038BD0223206884F82C30E2
:101C080000F0F0FB002084F82C5038BD70B44D6A09
:101C180015B1B2F1406F3AD18B691BB30C6A002C35
:101C28004CD08E680068C661CE69002E69D02B43FF
:101C380013432343CC6A334323430C6B23434C6B3A
:101C480023430C692343CC6823430C6823434C6922
:101C5800B2F1406F43EA8443436165D04B6870BC7E
:101C6800836170470B6ABBB100682B438C68CE69EF
:101C7800C461002E6BD01343CC6A334323430C6BEF
:101C880023434C6B23430C692343CC68DEE78B6A00
:101C98000468013B2361BFE7CB69002B66D1002DA7
:101CA80042D0CB6A0C6B2B43006813434A69234329
:101CB8004C6B234343EA8243436135E0CC6945EAF0
:101CC800030C002C32D003684CEA0200B2F1406FDA
:101CD80040EA0400CC6A40EA04000C6B40EA0400C5
:101CE8004C6B40EA0400CC6840EA04000C6840EA07
:101CF80004004C6940EA8440586115D04A689A61EA
:101D080012E045EA030C0D694CEA0203CA6A234350
:101D18001343D1E90C4223430C6813434A692B430C
:101D2800234343EA8243436170BC7047CC6A4CEA60
:101D3800020300682343D1E90C4223430C68134390
:101D48004A69234343EA824370BC43617047CC6AC3
:101D580013432343D1E90C4223431343D1E90442FB
:101D6800234343EA824370BC436170472B43CD6AE7
:101D78000C6B134300682B4323434C6B84E700BF71
:101D8800704700BF70B50546FEF7E8FF002D46D046
:101D980095F841300646002B39D0AC6C2A68A96802
:101DA8001368013923F4706343EA0123136001E0E7
:101DB800631C24D1936813F02003F9D1E869E9681A
:101DC80014680143286A0143686841EA00611948B8
:101DD8002040014368691160A96954680143286972
:101DE80041EA00411448204001240143184651604B
:101DF8001168214311606B6485F8414070BDFEF79E
:101E0800ADFF801BA0420CD85CB12A68D2E72846F7
:101E1800FFF7B6FF41F288331C46AB64BEE70120EA
:101E280070BD0423012085F841306B6C03436B645B
:101E380070BD00BF2FFFFF00FEF8E0FF704700BF36
:101E480070B10268136823F0010310B513600446EB
:101E5800FFF7F4FF00236364184684F8413010BD8F
:101E6800012070472DE9F843054688461646FEF7D7
:101E780075FF95F84030012B3AD0012385F84030A2
:101E880095F84130012B5FFA83F907D04FF002092A
:101E98000023484685F84030BDE8F883002307460C
:101EA8006B64022385F841302A6801E0701C10D168
:101EB800946814F02004F9D1224641462846FFF7D9
:101EC800A5FED8F82430FBB10123A14685F841309E
:101ED800DEE7FEF743FFC01B864201D3002EE3D1A5
:101EE800042385F841306B6C43F001036B64CFE742
:101EF8004FF002094846BDE8F883FEF72FFFC01BE4
:101F08008642EDD3002EEBD02A6801E0711CF4D193
:101F180093689B07FAD5022101234FF00009D1608D
:101F280085F84130B4E700BF2DE9F84305468946F6
:101F38001446FEF713FF95F840302F68012B60D048
:101F4800012385F8403095F84130012B5FFA83F87A
:101F580007D04FF002080023404685F84030BDE81E
:101F6800F88300236B64B9F1000F4FD012230646A3
:101F780085F841303B690133EB623B69C5F8249031
:101F88000133AB627B6923F040637B61EB6AB3B1D9
:101F98003A4601E0601C25D193685907FAD56B6A67
:101FA8001B7887F82030EA6A6B6A013A0133EA62E3
:101FB800EA6A6B62A2B12A68EEE7621C0AD1BB68C2
:101FC8009B07FAD502234FF00008FB60012385F830
:101FD8004130C0E7FEF7C2FE801B844209D344B1FA
:101FE8002F68ECE7FEF7BAFE801B844201D3002C71
:101FF800E1D1042385F841306B6C43F001036B6435
:10200800E4E74FF002084046BDE8F8836B6C43F004
:1020180008036B649FE700BF2DE9F84305461446A3
:102028008946FEF79BFE2F68BA6995F84030012B68
:1020380064D0012385F8403095F84130012B5FFAD0
:1020480083F807D04FF002080023404685F8403057
:10205800BDE8F88300236B64B9F1000F53D0222345
:10206800064685F841303B690133AB633B69C5F8E7
:10207800309001336B637B6923F0406343F08063E6
:102088007B61BA61AB6BBBB13A4601E0611C26D1FA
:10209800936813F0060FF9D097F820202B6B1A706D
:1020A800AA6B2B6B013A0133AA63AA6B2B63A2B10B
:1020B8002A68EDE7621C0AD1BB689B07FAD50223A0
:1020C8004FF00008FB60012385F84130BCE7FEF7BC
:1020D80045FE801B844209D344B12F68ECE7FEF724
:1020E8003DFE801B844201D3002CE1D1042385F8F6
:1020F80041306B6C43F001036B64E4E74FF0020876
:102108004046BDE8F8836B6C43F008036B649BE7BB
:102118002DE9F04704461D4688461746FEF71EFE81
:1021280094F84030012B4CD0012384F8403094F8C7
:102138004130012B5FFA83FA07D04FF0020A0023DF
:10214800504684F84030BDE8F08700238146636438
:10215800422384F84130266801E06B1C28D1B3681B
:102168009806FAD43B6841462046B3627B6873629E
:10217800BB68F36232683B6922F440021343FA6891
:1021880043F480033360C8F828204FF00062FFF75B
:102198003DFD226801E0691C18D193681B07FAD538
:1021A800082101234FF0000AD16084F84130C6E7C6
:1021B800FEF7D4FDA0EB090085420FD3002DCAD14C
:1021C8000CE04FF0020A5046BDE8F087FEF7C6FD66
:1021D800A0EB0900854201D3002DDAD1042384F84D
:1021E8004130636C43F001036364A8E72DE9F047CD
:1021F800044688461746FEF7B1FD94F84030012B97
:1022080040D0012384F8403094F84130012B5FFA24
:1022180083FA07D04FF0020A0023504684F8403072
:10222800BDE8F08700238146A66C6364822384F8A6
:102238004130256801E0721C14D1AB689B06FAD4C2
:102248002B687A6823F00803082A43EA02032B6004
:102258001DD04FF04062414620464FF0000AFFF77C
:10226800D5FCD9E7FEF77AFDA0EB0900864201D339
:10227800002EDED1042384F84130636C43F001035F
:102288006364C9E74FF0020A5046BDE8F0873A6830
:1022980010232A63EB602B6843F480132B60D8E784
:1022A8000B6810B4D3B90468A3F500434A68234007
:1022B8001343D1E9024223431343D1E904422343A0
:1022C8001343D1E9064223431343D1E90842234388
:1022D8005DF8044B13430360002070470268D1E99E
:1022E800074322F4F84222434C6A1A430A4B22431A
:1022F800026042681340D1E9014223431343D1E904
:10230800034223431343D1E9054223435DF8044BB9
:1023180013434360002070470080FFFF30B40ABBBE
:102328008368D1E9002403F07043013C013A43EA91
:1023380004131343D1E90224013A013C43EA02237E
:1023480043EA0432D1E904348969013B013C01398B
:1023580042EA034343EA045343EA016330BC83601F
:10236800002070478268CC68114B013C13404A69D1
:1023780043EA0433541E43EA0454D1E90025846037
:10238800C3686C1E013A03F0704343EA04130C69F6
:102398001A438B68013C8969013B013942EA0323EE
:1023A80043EA044343EA016330BCC360002070473A
:1023B800FF0F0FFF10B4D1E9003402460069234330
:1023C800D1E9021443EA4423054C013904400020B2
:1023D80023435DF8044B43EA41131361704700BF80
:1023E8000000C0FF0246054B002010B4546923408A
:1023F8005DF8044B43EA41015161704701C0FFFF9A
:1024080038B5104CE36813F0040FE36805D103F006
:102418000703181A18BF012038BD23F00703184313
:10242800E060FEF79BFC054605E0FEF797FC401BC5
:10243800B0F57A7F04D863689B04F6D5002038BDD0
:10244800012038BD0048025870B50D4E0D4D761B61
:10245800B61006D0002455F8043B01349847A6422C
:10246800F9D1094E094D761B00F082F8B61006D056
:10247800002455F8043B01349847A642F9D170BDB1
:10248800A4250008A4250008AC250008A4250008F8
:10249800024B13B1024800F005B870470000000075
:1024A800B9240008002301461A46184600F01AB855
:1024B80038B5084B084D5B1B9C1007D0043B1D44E6
:1024C800013C55F804399847002CF9D1BDE838404B
:1024D80000F054B8B0250008AC250008704700BFCC
:1024E800704700BF2DE9F047DFF880A00646DAF80C
:1024F800000098460F469146FFF7F0FF1A4B1B68FD
:10250800D3F8484124B365681F2D26DC5EB96B1CDF
:102518000235DAF80000636044F82570FFF7E0FF41
:102528000020BDE8F08704EB85010123C1F88890FD
:10253800D4F88821AB401A43022EC4F88821C1F888
:102548000881E4D1D4F88C211343C4F88C31DEE738
:1025580003F5A674C3F84841D5E7DAF80000FFF799
:10256800BFFF4FF0FF30DCE7A0250008380400204B
:10257800F8B500BFF8BC08BC9E467047F8B500BF68
:08258800F8BC08BC9E46704738
:102590000000000001020304010203040607080909
:0425A0001000002007
:0825A40099240008BD020008A3
:0425AC009902000888
:1025B0000090D0030090D003010000001000000044
:1025C00000000000FC02002064030020CC03002077
:1025D00000000000000000000000000000000000FB
:1025E00000000000000000000000000000000000EB
:1025F00000000000000000000000000000000000DB
:1026000000000000000000000000000000000000CA
:1026100000000000000000000000000000000000BA
:1026200000000000000000000000000000000000AA
:10263000000000000000000000000000000000009A
:10264000000000000000000000000000000000008A
:10265000000000000000000000000000000000007A
:102660000000000000000000010000000000000069
:102670000E33CDAB34126DE6ECDE05000B0000002E
:10268000000000000000000000000000000000004A
:10269000000000000000000000000000000000003A
:1026A000000000000000000000000000000000002A
:1026B000000000000000000000000000000000001A
:0C29E0000000000000000000DC040020EB
:04000005080002D914
:00000001FF
